:020000040800F2
:100000000842002041020008F52600087325000878
:10001000F1260008151000086938000800000000EB
:100020000000000000000000000000009137000800
:10003000B11000080000000049360008933700089E
:100040005B0200085B0200085B0200085B0200081C
:100050005B0200085B0200085B0200085B0200080C
:100060005B0200085B0200085B0200085B020008FC
:100070005B0200085B0200085B0200085B020008EC
:100080005B0200085B0200085B0200085B020008DC
:100090005B0200085B0200085B0200085B020008CC
:1000A0005B0200085B0200085B0200085B020008BC
:1000B0005B0200085B0200085B0200085B020008AC
:1000C0005B0200085B0200085B0200085B0200089C
:1000D0005B0200085B0200085B0200085B0200088C
:1000E0005B0200085B0200085B0200085B0200087C
:1000F0005B0200085B0200085B0200085B0200086C
:100100005B0200085B0200085B0200085B0200085B
:100110005B0200085B0200085B0200085B0200084B
:100120005B0200085B0200085B0200085B0200083B
:100130005B0200085B0200085B0200085B0200082B
:100140005B0200085B0200085B0200085B0200081B
:100150005B0200085B0200085B0200085B0200080B
:100160005B0200085B0200085B0200085B020008FB
:100170005B0200085B0200085B0200080000000050
:100180005B0200085B02000800F002F800F049F88A
:100190000AA090E8000C82448344AAF10107DA45E2
:1001A00001D100F03EF8AFF2090EBAE80F0013F0EB
:1001B000010F18BFFB1A43F001031847AC8007007A
:1001C000CC800700103A24BF78C878C1FAD852070B
:1001D00024BF30C830C144BF04680C6070470000C1
:1001E0000023002400250026103A28BF78C1FBD840
:1001F000520728BF30C148BF0B607047642900F028
:100200004D81002070471FB503F065FB9DE803009A
:1002100000F0C6F900F0A0FA1FBD10B500F005FB14
:1002200010BD00F070FB1146FFF7EDFF03F047FB38
:1002300000F038FD03B4FFF7F0FF03BC00F070FDE1
:100240000948804709480047FEE7FEE7FEE7FEE76A
:10025000FEE7FEE7FEE7FEE7FEE7FEE704480549A6
:10026000054A064B70470000553800088901000810
:100270000802002008420020082200200822002056
:1002800070B5064600F070F9056806F10B0020F025
:100290000704B4429CBF002070BD2B466A68BAB107
:1002A0001068A04210D304F1080188423CBF506896
:1002B000586007D35168101941601168091B01602B
:1002C00058601460101D70BD13465268002AE7D1B3
:1002D0002146284600F050F90028DED170BD70B5E7
:1002E0000446051F00F040F90068002C14BF446864
:1002F00070BD002C18BFAC423CBF20466468F8D3E8
:1003000001680A18AA4218BF456003D12A68054649
:100310001144016028684119A1421CBF6C6070BD86
:100320006168696021680844286070BD53EA020C66
:1003300000F069802DE9F04B4FF00006002B1FBF45
:10034000B3FA83F503FA05F424FA05F65E4012BF0A
:100350001643B2FA82F502FA05F4C5F120051EBF74
:1003600022FA05FC44EA0C04203556EA044C4FEA14
:10037000144418BF641C4FF000084FF0000990426D
:1003800071EB030C39D3002919BFB1FA81F701FAD7
:1003900007F6B0FA80F700FA07F6C7F120071EBF8C
:1003A00020FA07FC46EA0C062037B6FBF4FCA7EB64
:1003B0000507103F07F01F0BCBF120060CFA0BFBD3
:1003C0002CFA06F644BFB3460026202FA4BF5E4693
:1003D0004FF0000B5BEA060C08BF4FF0010B19EB66
:1003E0000B09ABFB027C48EB0608C01B06FB02CCEA
:1003F0000BFB03CC71EB0C01C1E70B4602464146F7
:100400004846BDE8F08B13B54FF000004FF00001F7
:10041000AFF30080BDE81C40704700000FB40449F2
:1004200010B503AA029800F04BF910BC5DF814FB5C
:10043000000100202DE9F0410E4604460020206214
:100440002046E168884730B3252805D0D4E901214A
:100450009047206A401CF2E7E16820460027884761
:10046000050018D0A5F14100192802D820354FF415
:1004700000673246294620462760FFF7BFFE40B19D
:10048000012804D0F61D26F007060836D8E7361DE9
:10049000D6E72846DAE7206ABDE8F0812DE9F04189
:1004A0000646002410687529314616A510D0AFF312
:1004B0000080002802DA404213A507E031688A076D
:1004C00001D512A502E0490704D511A5012401E0D8
:1004D000AFF3008000210A2206F1240709E0B0FBF7
:1004E000F2FCB0FBF2F302FB1C00303078541846EB
:1004F000491C0028F3D123462A463046BDE8F04186
:1005000000F084B8000000002D0000002B00000067
:10051000200000004FF0000200B5134694469646B6
:10052000203922BFA0E80C50A0E80C50B1F1200106
:10053000BFF4F7AF090728BFA0E80C5048BF0CC0B4
:100540005DF804EB890028BF40F8042B08BF704712
:1005500048BF20F8022B11F0804F18BF00F8012B84
:10056000704770477047704700487047B0010020DF
:10057000704770477047704738B504460A460020F8
:100580006946AFF30080002808BF38BD02460099D5
:10059000204600F0ABF8012038BD012000F078B90A
:1005A000F8B5AFF30080054600200C46102000BFD0
:1005B0000646A819A0420DD9324669460020AFF37D
:1005C0000080070008BF00F063F90098A04218BF40
:1005D0000546C419FFF7C8FF05600746F01D20F067
:1005E00007004619284600F00AF8B44208BFF8BDD3
:1005F000A21B31463868BDE8F84000F077B800210A
:100600000160C0E901107047102070472DE9F047E4
:100610000D4699469246044600F124080168880672
:1006200004D5E06921F01001216000E00120A8421A
:1006300001DD471B00E00027A1697A1902EB0900E0
:10064000081AA0612078C00602D42046AFF30080CB
:10065000002608E0D4E901211AF806009047206A34
:10066000401C761C20624E45F4DB2078C0060AD57B
:100670002046AFF3008006E0D4E901213020904706
:10068000206A401C2062381EA7F10107F4DC07E055
:10069000D4E9012118F805009047206A401C206227
:1006A000281EA5F10105F3DC2046AFF30080207879
:1006B000000602D50220BDE8F0870120FBE700001C
:1006C000074B70B50D467B4400F02FF804462846D2
:1006D00000F03EF810B14FF0FF3070BD204670BD05
:1006E000DB31000000487047A80100200346406845
:1006F0008C46002818BF88423CBF03464068F8D3A8
:1007000018681844884207D00CF1030020F0070055
:10071000001D411A521A0146081D0A60FFF7DFBD8D
:1007200001694A1C02610878704700B58FB0CDE9B5
:1007300001310021059105497944CDE903101146A5
:100740006846FFF777FE0FB000BD0000E5FFFFFF32
:10075000007B00F08000704710B542485421FFF73D
:10076000D9FE41485421FFF7D5FE40485421FFF7F8
:10077000D1FE3F493B483C4A3F4B08603D490A6037
:100780003A491960531C0365481C1065012008652F
:100790003B48344A39A1784400F0E8F920B9384898
:1007A00078440A3800F08CFA37482F4A35A178444B
:1007B00000F0DCF920B9344878440A3800F080FAB7
:1007C00032482A4A2FA1784400F0D0F920B92F48A6
:1007D00078440A3800F074FA40232248DC000021F3
:1007E000224600F0A0F920B125487844543800F0A2
:1007F00067FA1D4822464023002100F094F920B1F9
:1008000021487844543800F05BFA184822461023F7
:10081000002100F088F9002806D01C487844BDE883
:100820001040563800F04CBA10BD104870B5006D3D
:1008300020F001040B4800F00FFA0B4800F00CFA0E
:100840000A4800F009FA09E0206D20F00105204671
:1008500000F002FA2046FFF742FD2C46002CF3D1AF
:1008600070BD0000AC0000200001002054010020F9
:10087000300000203400002038000020720000000A
:100880003A7A070077000000267A0700127A0700FC
:1008900010B500F01DFABDE8104000F00CBA0EB51E
:1008A000CDE9000100F06AFB029069460120ABBE71
:1008B0000EBD08B5694600900220ABBE08BD1FB54D
:1008C0008DE8070069460520ABBE04B010BD1FB51A
:1008D0008DE80F0069460620ABBEF6E708B569460D
:1008E00000900920ABBE08BD1CB5CDE900016946EA
:1008F0000A20ABBE1CBD704708B5694600900C20AD
:10090000ABBE08BD70477546FFF7ECFEAE4605006E
:100910006946534620F00700854618B020B5FFF71A
:100920009DFCBDE820404FF000064FF000074FF05F
:1009300000084FF0000B21F00701AC46ACE8C009FD
:10094000ACE8C009ACE8C009ACE8C0098D46704706
:100950002DE9F04705460C46C86820F4201040F405
:100960008000C860800602D5084600F0B2FAE06850
:1009700041F282014FF0FF390140022903D02046A5
:1009800000F050FAB5E000F42041B1F5004F0FD16E
:10099000C00306D56168E06A884200D808466060F6
:1009A00006E02069E06260606069FFF7A5FFA06172
:1009B000A0680022EEB200280DDAE1688B050AD4A7
:1009C000C043A06041F490302260E0606068411C48
:1009D00061600670A5E0E0689046226040F4005037
:1009E000E060206968BB6069FFF778FF012704F1C8
:1009F0002405A0B1A08910F4407F08D0E069FFF77A
:100A00003FFC206118B1E06840F4006016E0E76147
:100A10002561E06820F4407040F480600EE0E069F9
:100A2000FFF72EFC00282061F1D0E06840F4006060
:100A300010F4407FE06002D140F48070E0602069F3
:100A40006060E06825696FF0010AC1051FD5616823
:100A5000E06A884200D80846411B04D02246284656
:100A600000F0EAF9F0BBE068010203D5E562C4E9F1
:100A7000015854E0691CE1626160E16940F4803032
:100A8000491EC4E9021030462E70BDE8F08701020D
:100A900002D500F480320AE06068411C6160067093
:100AA000E0680A2E40F48030E06006D00022E16A5F
:100AB0006068814203D90B4602E00122F7E7034652
:100AC000A7895B1B7F0503D4E7699F4200DDE2B184
:100AD000814200D80146E5620F1AC4E90158002B93
:100AE00009DD00E005E022461946284600F0A4F999
:100AF00008B14846C9E747B1A069E5626560C01B17
:100B0000A061E06840F01000E060E068000208D5F5
:100B10006168A069E562491B08446560A0615046B0
:100B2000B3E73046B1E770B5C468A50713D06502D6
:100B300011D4B2F5807F09D0B2F5007F06D0B2F5AE
:100B4000806F08D1012300F1240106E05D1E6FF0E3
:100B50007F46B54201D3012070BD0161C361416090
:100B600024F470611143C160002070BD2DE9F04193
:100B70000C4607461646104600F06EF82078611CB9
:100B800061280AD0722802D077283CD102E00125E2
:100B9000002405E00225042402E0082448F20205AE
:100BA00011F8010B2B2806D0622809D011F8010C8E
:100BB00074280AD00BE045F0030544F00204EFE787
:100BC00045F0040544F00104EAE744F01004384617
:100BD0002146FFF764FE411C15D000213161716090
:100BE0004FF40071F560F1617061200704D5304663
:100BF0000222002100F09AF8306D40F001003065CB
:100C00003046BDE8F0810020FBE72DE9F0410D46BC
:100C10000646104C206DC10704D0410804D020F0D6
:100C20000104F7E722460EE05420FFF729FB0700F6
:100C30000ED0206D47F0010108435421206538464D
:100C4000FFF768FC3A4629463046BDE8F0418DE79B
:100C50000020D6E7AC0000202DE9F04704464FF015
:100C600000094FF0FF37C568D4E90486A80707D00C
:100C7000204600F00BF93046FFF71BFE002802DA91
:100C80003846BDE8F087280502D54046FFF727FB28
:100C90004C212046FFF73EFC206D20F0010020652E
:100CA0004846EEE710B50446AFF300802046BDE8A5
:100CB0001040FFF7BFBA002801D000F031B87047EC
:100CC00010B500F041F9BDE81040FFF7F4BF000097
:100CD00010B5012805D0002103A000F01BF9012068
:100CE00010BD09A1F8E7000053494752544D454D46
:100CF0003A204F7574206F662068656170206D65BD
:100D00006D6F7279000000003A2048656170206DB7
:100D1000656D6F727920636F7272757074656400AF
:100D200001491820ABBEFEE7260002002DE9F04184
:100D3000044616460D464769007B80072ED038468C
:100D4000FFF7CCFD50BB3EB3012E02D0022E25D1C1
:100D500004E0204600F038F905441DE03846FFF76E
:100D6000CBFDE168002841F01001E16005DA204682
:100D700000F058F80120BDE8F081C9030BD5626886
:100D8000E16A914200D81146A26911442269891A88
:100D9000814200DD08460544002D01DA0220EAE721
:100DA000E16A6068E268814206D29103E06203D59D
:100DB00022F4003141F01002A6690027AE4213DC94
:100DC000E16A814201D90B4600E0034603EB060CC1
:100DD0002369ACEB030CAC4506DD814201D98C469E
:100DE00000E084469C4505D1A760276042F02000C2
:100DF000A5620DE0AD1BE669AE1B8142A66000D97D
:100E00000846C01A281A20605819606022F0200095
:100E100003490840E060002084F84870ABE7000018
:100E2000BFCFD7FFC16821F4001141F08001C1603C
:100E300000218160016070472DE9F047814614462A
:100E40000E464FF0FF383248D5685769054209D041
:100E50003846A169FFF748FD002811DB2C48C04344
:100E60000540E5602B46324649463846FFF727FDE8
:100E7000A16920F00042B21A11440028A16103D0F8
:100E80002046FFF7CFFF4046BDE8F08770B5044627
:100E90000569C06A6168884200D80846E16821F4A3
:100EA0002011E160C90312D5A84208D02246411B97
:100EB0002846FFF7C1FF10B14FF0FF3070BD002092
:100EC000E562C4E90150E06820F48030E060002071
:100ED00070BD10B50446C06820F02000E060A16A33
:100EE000A06988420DD02046FFF7D0FFE06820F4CB
:100EF000405040F01000E060A06AA0612069E0620C
:100F0000606044F24001E0688843E06010BD00008A
:100F10001000020070B505460C460A2000E06D1C6A
:100F200000F04BF835B128780028F8D102E0641CB5
:100F300000F043F814B120780028F8D1BDE87040E3
:100F40000A2000F03AB8000010B5014602A0FFF7F1
:100F5000E1FF012010BD000053494752545245445F
:100F60003A2052656469726563743A2063616E2742
:100F700074206F70656E3A200000000010B5431CAD
:100F800002E010F8011B71B18107FAD14FF0013274
:100F900002C88C1A8C4314EAC211F9D0C01A0A068E
:100FA00003D0C01E10BDC01A10BD0A0401D0801E9F
:100FB00010BD0902FCD0401E10BD08B569468DF871
:100FC00000000320ABBE08BD10B50146C268900703
:100FD00003D0900607D5886A0AE000F017F80121CF
:100FE0000160881E10BD8B69486818440B69C01ADF
:100FF00091F848301BB191F84910401A10BD110307
:10100000FCD50028FADD401E10BD000000487047E6
:10101000A801002000BFFEE710B500224FF40051E8
:101020000A4800F0BBFC00224FF48051084800F051
:10103000B5FC00224021074800F0B0FC00224FF42C
:101040000061024800F0AAFC10BD00000010024040
:10105000000402400008024010B500224FF4005185
:101060000A4800F09BFC00224FF48051084800F031
:1010700095FC01224021074800F090FC0122D1029A
:10108000024800F08BFC002010BD00000010024060
:10109000000402400008024001B54FF47A730122B7
:1010A0006946024801F074F908BD000054000020B0
:1010B000704700002DE9F041044612490888C11725
:1010C00000EB91718F104FF0FA08102000F016F924
:1010D000002510E000260AE0A10141EA041141EADE
:1010E00084012143C8B200F025F9701C86B2BE42CB
:1010F000F2DB681C85B24545ECDB00F045F9BDE844
:10110000F0810000000000202DE9F04106461F2775
:101110004FF0FA08102000F0F1F8002518E0002444
:101120000CE01F2C05DA05FB0741705C00F002F9AA
:1011300002E0002000F0FEF8601C84B20749088835
:10114000C11700EB9171B4EBA10FEADB681C85B20B
:101150004545E4DB00F018F9BDE8F081000000200F
:1011600010B500F0ADF800F077F84D2000F0C6F8AB
:10117000782000F0DFF8002000F0C0F80F2000F029
:10118000D9F8292000F0D6F8012000F0B7F80720A0
:1011900000F0D0F8002000F0CDF8032000F0AEF809
:1011A000102000F0C7F8542000F0C4F8442000F0EC
:1011B000C1F8062000F0A2F8052000F0BBF80020DE
:1011C00000F0B8F83F2000F0B5F80A2000F0B2F8BF
:1011D000252000F0AFF8122000F0ACF81A2000F043
:1011E000A9F8502000F08AF8372000F0A3F860201A
:1011F00000F084F8022000F09DF8022000F09AF838
:1012000000F0CCF8E72000F079F81C2000F092F80C
:10121000E32000F073F8222000F08CF8B42000F0F6
:101220006DF8D02000F086F8B52000F067F80320B4
:1012300000F080F8E92000F061F8012000F07AF871
:10124000302000F05BF8082000F074F8042000F073
:1012500055F800F001F810BD10B50AA0FFF7DEF850
:10126000642000F085FA02E0642000F081FA4FF477
:1012700080410A4800F08AFB0128F5D108A0FFF759
:10128000CDF810BD44656275673A20652D506170D8
:10129000657220627573790D0A000000001002402B
:1012A00044656275673A20652D50617065722062F1
:1012B0007573792072656C656173650D0A000000B5
:1012C00010B50122D1020C4800F068FBC82000F0E4
:1012D0004FFA00224FF40061074800F05FFB022044
:1012E00000F046FA0122D102034800F057FBC82063
:1012F00000F03EFA10BD00000010024010B5044698
:1013000000224FF40051094800F048FB00224FF43E
:101310008051074800F042FB2046FFF7BDFE012246
:101320001103034800F03AFB10BD0000001002401A
:101330000004024010B5044601225103084800F0A1
:101340002DFB00224FF48051064800F027FB204679
:10135000FFF7A2FE01221103024800F01FFB10BD9F
:10136000001002400004024010B50220FFF7C6FF43
:10137000FFF772FF642000F0FBF90720FFF7BEFFC4
:10138000A520FFF7D7FF10BD10B51220FFF7B6FF5D
:101390000020FFF7CFFFFFF75FFF10BD10B58020E3
:1013A000164908806120FFF7A9FF14490C88E1174E
:1013B00004EB1161C1F30720FFF7BCFF0F490C8854
:1013C000E11704EB11610912A4EB0121C8B2FFF788
:1013D000B1FF0B490C88E11704EB1161C1F3072041
:1013E000FFF7A8FF06490C88E11704EB1161091209
:1013F000A4EB0121C8B2FFF79DFF10BD0000002043
:10140000020000202DE9F04F85B0FFF725FE20B146
:101410004FF0FF3005B0BDE8F08FFFF7A1FE0120CF
:10142000FFF748FE4FF4FA6000F0A2F941F646607B
:1014300003900398FEF724FFB0F1000A01D1401E8B
:10144000E8E70398FEF71CFF049010B94FF0FF3057
:10145000E0E701205A23FA227A210090504601F059
:10146000F9FE042002F066F801200023FA227A2116
:101470000090049801F0EEFE042002F05BF8504664
:1014800001F02CFF012001F039F9A24801F096F992
:101490005046FFF739FE4FF4FA6000F069F9504604
:1014A00001F01CFF012001F029F90120034603226D
:1014B000502100900A2001F061FC012002231A460D
:1014C0005A2100900A2001F059FC01200323002238
:1014D000642100900A2001F051FC00200121032228
:1014E0007823CDE90021029046221146142001F014
:1014F0002FFB0020012103227823CDE90021029057
:1015000014224621084601F023FB0020012102227B
:101510007823CDE90021029046221146142001F0E3
:10152000D5FC01200222CDE9002078238222462129
:101530000290502001F0CAFC002001210346142231
:10154000CDE900105F212D2001F000FA012000906C
:10155000002314225F210190692001F0F7F9012096
:101560000322CDE900205F237D22194602905520F9
:1015700001F0EEFA01200222CDE900207323692256
:101580004B210290104601F0E3FA02200321624B46
:1015900062A2CDE9001000210A2001F019FE00200E
:1015A0000221664B66A2CDE9001023210A2001F03A
:1015B0000FFE01200321674B67A2CDE900107D21BA
:1015C0000A2001F0FBFC012003215C4B654ACDE9B8
:1015D000001032210A2001F05DFB5046FFF794FD18
:1015E00040F6B83000F0C4F8504601F077FE012014
:1015F00001F084F801200322CDE900203723A8223E
:101600000146029001F062FC01200222CDE9002097
:10161000A7231A467021029001F058FC01200022F5
:10162000CDE90020A7236D22014602903B2001F066
:101630004DFC5046FFF768FD40F6B83000F098F8D2
:10164000504601F04BFE012001F058F80826FA2020
:1016500090FBF6F7B0467A2090FBF8F9002416E0EC
:101660000121254604EBD5704010A4EB400080B268
:10167000CDE90001601C784383B204FB07F0401CF5
:10168000029181B27A22012001F020FC641CB44254
:10169000E6DB002423E0204604EBD0714910A4EBE4
:1016A0004101D9B10121254604EBD5704FEA600B09
:1016B0000BEBDB704010ABEB4000801C80B2CDE93F
:1016C00000010291611C09FB01F18AB204FB09F1DE
:1016D000491C88B2FA23012101F0F8FB641C44453F
:1016E000D9DB5046FFF710FD40F6B83000F040F867
:1016F0000120FFF7DFFCFFF737FE5046FEF7EFFD56
:101700004FF0000A4FF4FA6000F032F8FFF784FC63
:1017100000207FE6E03800080C0000205265642CB1
:101720002079656C6C6F772C20776869746520610F
:101730006E6420626C61636B000000000400002096
:10174000466F757220636F6C6F7220652D506170EB
:101750006572000014000020CEA2D1A9B5E7D7D34E
:101760000000000040E2010072B600BFFEE700008A
:1017700070B5044600F018F906462546681C10B1FD
:1017800004480078054400BF00F00EF9801BA84211
:10179000FAD370BD2C000020F8B502460B46002598
:1017A000002400200021D6E0012606FA01F51E687B
:1017B00006EA0504AC4274D11E7906F00306012E38
:1017C00004D01E7906F00306022E13D190684F0054
:1017D0000326BE40B0434F00DE68BE4030439060F9
:1017E000506801268E40B0431E79C6F300168E4025
:1017F000304350601E7906F00306032E09D0D068EE
:101800004F000326BE40B0434F009E68BE403043A9
:10181000D0601E7906F00306022E13D1CF0802F124
:10182000200656F827004E07F70E0F26BE40B0439D
:101830004F07FF0E1E69BE403043CF0802F120065D
:1018400046F8270010684F000326BE40B0431E79BB
:1018500006F003064F00BE40304310605E6806F499
:101860004036002E76D000BF002600963C4E3668EB
:1018700046F480463A4F3E603E46366806F480465F
:10188000009600BF00BF374E8F0856F827008E071E
:10189000370F0F26BE40B043334EB24202D100266E
:1018A00024E057E0314EB24201D101261EE0304E15
:1018B000B24201D1022619E02E4EB24201D10326D6
:1018C00014E02D4EB24201D104260FE02B4EB2425D
:1018D00001D105260AE02A4EB24201D1062605E0D2
:1018E000284EB24201D1072600E008268F073F0F9D
:1018F000BE4030431B4E8F0846F82700224E30680A
:10190000A0435E6806F4801606B120431E4E306088
:10191000361D3068A0435E6806F4001606B1204309
:10192000194E361D3060184E361F3068A0435E6871
:1019300006F4003606B12043134E361F3060361FC2
:101940003068A0435E6806F4803606B120430E4E30
:10195000083E3060491C1029FFF426AFF8BD000096
:1019600044380240083801400000024000040240B0
:1019700000080240000C0240001002400014024027
:1019800000180240001C0240083C01400246136956
:101990000B400BB1012000E0002070470AB18161CB
:1019A00001E00B0483617047014800687047000044
:1019B00024000020034800680349097808440149CD
:1019C00008607047240000202C00002010B50D484E
:1019D000006840F400700B4908600846006840F455
:1019E000806008600846006840F48070086003204A
:1019F00000F092F80F2000F007F800F02BF800201C
:101A000010BD0000003C024070B504460E4800784E
:101A10004FF47A71B1FBF0F00C490968B1FBF0F5B5
:101A2000284600F08CFD08B1012070BD102C07D2B3
:101A300000222146501E00F031F80548046001E004
:101A40000120F2E70020F0E72C0000202000002019
:101A50002800002008B500BF002000900E48006854
:101A600040F480400C4908600846006800F480405B
:101A7000009000BF00BF00BF00200090081F00685A
:101A800040F08050091F08600846006800F0805050
:101A9000009000BF00BF08BD443802402DE9F05F50
:101AA00080460D461646002701F0E0FE07463946FF
:101AB0002A46334601F00700C0F1070ABAF1040FC5
:101AC00002D94FF0040A01E0C0F1070AD14600F143
:101AD000040ABAF1070F02D24FF0000A01E0A0F1A8
:101AE000030AD4464FF0010A0AFA09FAAAF1010AD8
:101AF0000AEA020A0AFA0CFA4FF0010B0BFA0CFB85
:101B0000ABF1010B0BEA030B4AEA0B0421464046FA
:101B100001F0B4FEBDE8F09F00BF00F00702064BE5
:101B200019684FF6FF031940044B0B4343EA0221A7
:101B3000014B196000BF70470CED00E00000FA0592
:101B40007047000070B504460D460CB9012070BD09
:101B50005848006800F00700A84209D255490D70A6
:101B60000846006800F00700A84201D00120EEE717
:101B7000207800F0020002281DD1207800F0040037
:101B8000042805D14C48006840F4E0504A490860F8
:101B9000207800F00800082805D14748006840F484
:101BA0006040454908604448006820F0F000A168A2
:101BB000084341490860207800F00100A8B360683C
:101BC000012807D13C4808380068C0F34040B8B944
:101BD0000120BCE76068022802D06068032807D1B2
:101BE000354808380068C0F3406048B90120AEE7C6
:101BF000314808380068C0F3400008B90120A6E762
:101C00002D48006820F00300616808432A490860F5
:101C1000FFF7CAFE064609E0FFF7C6FE801B41F249
:101C20008831884202D9032091E707E02248006802
:101C300000F00C006168B0EB810FEDD11D48006829
:101C400000F00700A84209D91A490D70084600683B
:101C500000F00700A84201D0012078E7207800F0CA
:101C60000400042807D11448006820F4E050E1681B
:101C7000084311490860207800F00800082808D1BE
:101C80000D48006820F46040216940EAC1000A491B
:101C9000086000F01FF808490968C1F30311074AFA
:101CA000515CC8400649086006480068FFF7ACFE72
:101CB00000204CE7003C024008380240BC81070885
:101CC000200000202800002001200149C86470473E
:101CD000000047422DE9F047002400250026A146D8
:101CE0002548006800F00C0020B1042805D0082821
:101CF0003AD105E0DFF8849039E0DFF8849036E0EF
:101D00001D48001F006800F03F041B48001F0068CA
:101D100000F4800078B11A481749091F0968C1F317
:101D20008811A0FB01700146224600233846FEF7C9
:101D3000FDFA05460EE011480F49091F0968C1F375
:101D40008811A0FB01700146224600233846FEF7A9
:101D5000EDFA05460848001F0068C0F30140401C2A
:101D60004600B5FBF6F902E0DFF8109000BF00BFB7
:101D70004846BDE8F0870000083802400024F4001F
:101D8000001BB70010B50648006800F080008028EE
:101D900005D1FFF7D5FE80200149891C087010BDD0
:101DA0000C380240F8B504460CB90120F8BD207883
:101DB00000F00100002874D0F948006800F00C0021
:101DC00004280DD0F648006800F00C00082813D154
:101DD000F348001F006800F48000B0F5800F0BD1BD
:101DE000EF4808380068C0F34040002859D06068C8
:101DF000002856D10120D9E700BF6068B0F5803FC8
:101E000008D1E7480838006840F48030E4490839D0
:101E100008601EE06068B0F5A02F0DD1E0480838DA
:101E2000006840F48020DE490839086008460068F0
:101E300040F4803008600CE0D9480838006820F48D
:101E40008030D749083908600846006820F48020AF
:101E5000086000BF606890B1FFF7A6FD054606E088
:101E6000FFF7A2FD401B642801D903209EE7CC4860
:101E700008380068C0F340400028F1D011E0FFF7B7
:101E800093FD054606E0FFF78FFD401B642801D94E
:101E900003208BE7C24808380068C0F340400028A0
:101EA000F1D1207800F0020002285FD1BC48006820
:101EB00000F00C0058B1BA48006800F00C00082887
:101EC0001CD1B748001F006800F48000B0B9B448C6
:101ED00008380068C0F3400020B1E068012801D054
:101EE000012063E7AE480838006820F0F800216957
:101EF00040EAC100AA490839086037E0E06800B349
:101F00000120A8490860FFF74FFD054606E0FFF7EE
:101F10004BFD401B022801D9032047E7A0480838A1
:101F20000068C0F340000028F1D09D4808380068E0
:101F300020F0F800216940EAC10099490839086099
:101F400014E0002097490860FFF72EFD054606E0E3
:101F5000FFF72AFD401B022801D9032026E79048FD
:101F600008380068C0F340000028F1D1207800F064
:101F7000080008282CD16069A8B101208A490860AE
:101F8000FFF712FD054606E0FFF70EFD401B022895
:101F900001D903200AE782486C300068C0F3400092
:101FA0000028F1D014E000207F490860FFF7FCFC16
:101FB000054606E0FFF7F8FC401B022801D9032084
:101FC000F4E677486C300068C0F340000028F1D197
:101FD000207800F00400042870D1002770483830C1
:101FE000006800F0805090B900BF002000906C485D
:101FF0003830006840F08050694938310860084640
:10200000006800F08050009000BF00BF01276748C3
:10201000006800F48070B0B96448006840F48070D3
:1020200062490860FFF7C0FC054606E0FFF7BCFC0C
:10203000401B022801D90320B8E65C48006800F480
:1020400080700028F2D000BFA068012808D1544851
:102050006830006840F001005149683108601DE0B7
:10206000A06805280DD14E486830006840F0040093
:102070004B49683108600846006840F0010008607C
:102080000CE047486830006820F00100444968319E
:1020900008600846006820F00400086000BFA068DF
:1020A000A8B1FFF781FC054609E0FFF77DFC401B66
:1020B00041F28831884202D9032077E626E0384889
:1020C00068300068C0F340000028EED013E0FFF74E
:1020D0006BFC054608E0FFF767FC401B41F28831C6
:1020E000884201D9032061E62D4868300068C0F3BA
:1020F00040000028EFD1012F07D12948383000686F
:1021000020F0805026493831086000BFA0690028BF
:1021100045D02348006800F00C0008285DD0A06975
:10212000022845D100201F490866FFF73DFC0546FF
:1021300006E0FFF739FC401B022801D9032035E6F1
:10214000174808380068C0F340600028F1D1D4E98E
:1021500007010843616A40EA81110122A06AC2EBCB
:10216000500041EA00412C20005D41EA00600C492A
:10217000091F086001200B490866FFF715FC05469A
:1021800006E0FFF711FC401B022801D903200DE6F1
:10219000034808380068C0F340600028F1D049E0E7
:1021A0000838024000004742800E4742007000405D
:1021B000002021490866FFF7F7FB054606E0FFF718
:1021C000F3FB401B022801D90320EFE51B48006800
:1021D000C0F340600028F2D12CE0A069012800D1B2
:1021E000E4E51648001D0668A069012820D006F421
:1021F0008001E06981421BD106F03F01206A8142E3
:1022000016D147F6C0703040616AB0EB811F0FD124
:1022100006F440310122A06AC2EB5000B1EB004F3E
:1022200006D106F070612C20005DB1EB006F01D08B
:102230000120BBE50020B9E500004742003802401C
:1022400010B504460CB9012010BD606A38B9606849
:10225000B0F5827F00D105E00021E16102E00021BC
:10226000216161610021A16294F8510028B9002028
:1022700084F85000204600F047F8022084F851000E
:102280002068006820F0400021680860A08800F401
:102290008270218901F404410843A18901F400619D
:1022A0000843217C01F002010843217D01F0010176
:1022B0000843218B01F400710843217F01F03801AC
:1022C00008432021095D01F080010843218D01F4BC
:1022D00000510843216808600421A06901EA104008
:1022E00094F8241001F01001084321684860206828
:1022F000C06920F400602168C86100206065012089
:1023000084F8510000209FE710B586B004461421E0
:1023100001A8FEF7FFF81B492068884230D100BFB2
:10232000002000901848006840F48040164908607A
:102330000846006800F48040009000BF00BF00BF66
:102340000020009010481038006840F002000E494C
:10235000103908600846006800F00200009000BFD5
:1023600000BF4FF420400190022002900020039013
:10237000032004900520059001A90448FFF70CFAFA
:1023800006B010BD00380040403802400004024052
:102390002DE9F84F0446884616461D464FF0000AC0
:1023A00000BF94F85000012802D10220BDE8F88F48
:1023B000012084F8500000BFFFF7F6FA0746B14647
:1023C00094F85100012802D04FF0020AADE0B8F1B4
:1023D000000F00D016B94FF0010AA6E0032084F8E0
:1023E000510000206065C4F83080A686E686A063B0
:1023F000A087E08760642064A068B0F5004F0BD12F
:102400002068006820F040002168086020680068AB
:1024100040F48040216808602068006800F04000B7
:10242000402805D02068006840F04000216808601E
:10243000E068B0F5006F2FD1606810B1B9F1010FFD
:1024400009D1206B00882168C860206B801C206344
:10245000E08E401EE0861BE02068806800F00200ED
:1024600002280AD1206B00882168C860206B801C7C
:102470002063E08E401EE0860AE0FFF795FAC01B5D
:10248000A84201D3681C00B915B94FF0030A4CE00B
:10249000E08E0028E0D12EE0606810B1B9F1010FA4
:1024A00009D1206B007821680873206B401C2063E1
:1024B000E08E401EE0861BE02068806800F002008D
:1024C00002280AD1206B007821680873206B401C19
:1024D0002063E08E401EE0860AE0FFF765FAC01B2D
:1024E000A84201D3681C00B915B94FF0030A1CE0DB
:1024F000E08E0028E0D13A462946204601F0A6F8B1
:1025000008B120206065A06850B900BF002000908D
:102510002068C068009020688068009000BF00BFFD
:10252000606D08B14FF0010A00BF012084F851002E
:1025300000BF002084F8500000BF504636E770B559
:1025400004462546681EB0F1807F01D301200FE0CC
:10255000681E4FF0E02148610F214FF0FF3001F07D
:102560008DF900204FF0E0218861072008610020EC
:1025700070BD00BFFEE7000000B587B0142102A8BF
:10258000FDF7C8FF00BF002001904448006840F0FC
:102590000100424908600846006800F0010001900F
:1025A00000BF00BF00BF002001900846006840F057
:1025B000800008600846006800F08000019000BFBD
:1025C00000BF00BF002001900846006840F00400F2
:1025D00008600846006800F00400019000BF00BFDA
:1025E00000BF002001900846006840F0100008601D
:1025F0000846006800F01000019000BF00BF00BF57
:10260000002001900846006840F00200086008467B
:10261000006800F00200019000BF00BF00224021CE
:102620001F48FFF7BBF900224FF420511D48FFF768
:10263000B5F900224FF480511B48FFF7AFF9402055
:1026400002900120039000200490059002A91448F4
:10265000FFF7A2F84FF420500290012003900020D1
:102660000490059002A90F48FFF796F84FF48040B8
:10267000029000200390049002A90A48FFF78CF80A
:102680004FF48050029001200390002004900590A8
:1026900002A90548FFF780F807B000BD30380240B6
:1026A00000080240001002400004024010B50E482D
:1026B0000E4908604FF48270486000210B48816029
:1026C000C160016141614FF4007181612021C161EC
:1026D00000210162416281620A21C162FFF7B0FDFF
:1026E00008B1FFF741F810BD003800405400002049
:1026F00000BFFEE7FFF746FB00BFFEE730B52E49FF
:10270000C98A022917D1002110E0002208E02A4CD2
:10271000648A01FB0423284D2D68E854531C9AB2A7
:10272000254B5B8A9342F2DC4A1C91B2224A928A80
:102730008A42EADC3EE02049C98A04291DD10021F1
:1027400016E000220EE01C4C648A01FB0423840185
:1027500044EA001444EA80040443174D2D68EC5405
:10276000531C9AB2144B5B8A9342ECDC4A1C91B224
:10277000114A928A8A42E4DC1CE00F49C98A07297F
:1027800018D1002112E000220AE00B4C648A01FB00
:10279000042340EA0014084D2D68EC54531C9AB2EF
:1027A000054B5B8A9342F0DC4A1C91B2024A928A42
:1027B0008A42E8DC30BD00003C00002030B5024613
:1027C0000023002111E0002009E00A4C648A01FB8B
:1027D0000403D45C074D2D68EC54441CA0B2054C96
:1027E000648A8442F1DC4C1CA1B2024CA48A8C4263
:1027F000E9DC30BD3C0000202DE9F05F074688464B
:1028000092461D4640488088B84203DB3E48C08857
:10281000404504DA3DA0FDF701FEBDE8F09FA98820
:10282000CA1701EB5272D2100846CB1701EB537353
:10283000DB10A1EBC3030BB1012300E00023134421
:10284000AAF12002B5F806C002FB0CF203FB02FB62
:10285000286800EB0B09002651E0002440E00B98AB
:10286000FF2814D1E11704EB5171C910A4EBC10288
:102870008021114199F80020114029B308EB06028C
:1028800091B23A1990B20A9A00F02EFD1CE0E117BD
:1028900004EB5171C910A4EBC1028021114199F8D8
:1028A0000020114041B108EB060291B23A1990B2F2
:1028B0000A9A00F019FD07E008EB060291B23A19F6
:1028C00090B20B9A00F010FDE11704EB5171C910A2
:1028D000A4EBC101072901D109F10109601C84B2EF
:1028E000A888A042BBDCA888C11700EB5171C910B1
:1028F000A0EBC10109B109F10109701C86B2E88899
:10290000B042AADC00BF88E73C0000204465627545
:10291000673A205061696E745F4472617743686101
:102920007220496E707574206578636565647320E4
:10293000746865206E6F726D616C20646973706C71
:1029400061792072616E67650D0A00002DE9F84F0C
:1029500005460E4692469B467B488088A84203DB8C
:102960007948C088B04204DC7848FDF757FDBDE8DF
:10297000F88F00240FFA8AF70320A0EB4A000FFA21
:1029800080F90B98012877D172E0A0465BE0012026
:1029900006EB080291B22A19009090B201235A4620
:1029A00000F0ECF9012006EB080291B22A1B00901E
:1029B00090B201235A4600F0E1F90120321991B298
:1029C000A5EB0802009090B201235A4600F0D6F918
:1029D0000120321B91B2A5EB0802009090B20123B6
:1029E0005A4600F0CBF90120A6EB080291B22A1B4F
:1029F000009090B201235A4600F0C0F90120A6EBE6
:102A0000080291B22A19009090B201235A4600F0B0
:102A1000B5F90120321B91B205EB0802009090B28B
:102A200001235A4600F0AAF90120321991B205EBB0
:102A30000802009090B201235A4600F09FF908F175
:102A400001000FFA80F8B845A1DDB9F1000F05DAF1
:102A5000A000801D48440FFA80F907E0E01B8000C9
:102A60000A3048440FFA80F9781E07B2601C04B29D
:102A7000BC428ADD66E0FFE762E00120F21991B214
:102A80002A19009090B25A460A9B00F077F901206B
:102A9000F21991B22A1B009090B25A460A9B00F09C
:102AA0006DF90120321991B2EA1B009090B25A469A
:102AB0000A9B00F063F90120321B91B2EA1B0090DF
:102AC00090B25A460A9B00F059F90120F21B91B2CC
:102AD0002A1B009090B25A460A9B00F04FF9012041
:102AE000F21B91B22A19009090B25A460A9B00F04C
:102AF00045F90120321B91B2EA19009090B25A4672
:102B00000A9B00F03BF90120321991B2EA190090BA
:102B100090B25A460A9B00F031F9B9F1000F05DA7C
:102B2000A000801D48440FFA80F907E0E01B8000F8
:102B30000A3048440FFA80F9781E07B2601C04B2CC
:102B4000BC429ADD00BF12E73C0000202482070847
:102B50002DE9F04F85B004460D4616461F463C4809
:102B60008088A0420BDB3A48C088A84207DB38487F
:102B70008088B04203DB3648C088B84205DA35A009
:102B8000FDF74CFC05B0BDE8F08FA046AA46301B0F
:102B900001D4301B00E0A01B8346781B002801DC19
:102BA000781B00E0E81B0490B44201DA012001E048
:102BB0004FF0FF300390BD4201DA012001E04FF0F9
:102BC000FF30029004980BEB00090020019000BF39
:102BD0000198401CC0B201901098012811D1032126
:102BE000019890FBF1F201FB120050B90120009016
:102BF000FF22514640460F9B00F0C0F80020019094
:102C000007E00120009051464046DDE90E2300F028
:102C1000B5F84FEA49010498814208DBB04500D17C
:102C200012E004988144039840441FFA80F84FEA68
:102C300049005845CCDCBA4500D105E0D94402989A
:102C400050441FFA80FAC3E700BF00BF9AE70000B4
:102C50003C00002044656275673A205061696E74DB
:102C60005F447261774C696E6520496E707574209F
:102C70006578636565647320746865206E6F726D36
:102C8000616C20646973706C61792072616E676534
:102C90000D0A00002DE9F04FADF5037D06460F4605
:102CA00015469946DDF834B2DDF830A20024A0467E
:102CB0004FF4807143A8FDF72DFC4FF4807103A8F9
:102CC000FDF728FC43A802901B488088B04203DB34
:102CD0001948C088B84206DA18A0FDF79FFB0DF529
:102CE000037DBDE8F08F00BF0A2095FBF0F100FBEB
:102CF0001150303003A90855601C04B20A2095FB1E
:102D0000F0F5002DF0D10BE0601E03A9085C43A98B
:102D100001F8080008F101000FFA80F8601E04B203
:102D2000002CF1DC4B46CDE900BA39463046029A18
:102D300000F04EFA00BFD2E73C0000204465627507
:102D4000673A205061696E745F4469734E756D20F7
:102D5000496E707574206578636565647320746866
:102D600065206E6F726D616C20646973706C61793F
:102D70002072616E67650D0A000000002DE9F047C2
:102D80000746884691461C46DDF820A02B488088DF
:102D9000B84203DB2948C088404510DA28A0FDF777
:102DA0003DFB26488288394635A0FDF737FB23488E
:102DB000C28841463BA0FDF731FBBDE8F087BAF180
:102DC000010F23D100251CE0002613E07819001B19
:102DD00003D408EB0600001B00D50FE008EB060249
:102DE000121B91B27A19121B90B24A4600F07CFA7B
:102DF000701C06B26000401EB042E7DC00BF681CD9
:102E000005B26000401EA842DEDC15E0002511E09E
:102E100000260BE008EB0602521E91B27A19521EF0
:102E200090B24A4600F060FA701C06B2A642F1DB8E
:102E3000681C05B2A542EBDB00BFBEE73C000020EA
:102E400044656275673A205061696E745F447261CF
:102E500077506F696E7420496E7075742065786361
:102E60006565647320746865206E6F726D616C2097
:102E7000646973706C61792072616E67650D0A0018
:102E800058706F696E74203D202564202C2050619D
:102E9000696E742E5769647468203D202564202073
:102EA0000D0A200059706F696E74203D2025642042
:102EB0002C205061696E742E486569676874203DE6
:102EC00020256420200D0A20000000002DE9FE4F7F
:102ED00081460E4692461F46DDE90D5B0C9C2A4852
:102EE000808848450BDB2848C088B04207DB26486D
:102EF0008088504503DB2448C088B84204DA23A008
:102F0000FDF78CFABDE8FE8FBBF1000F12D0B04682
:102F10000DE00020434652464146CDE9004502906F
:102F20004846FFF715FE08F101001FFA80F8B84582
:102F3000EFDB27E00020334652463146CDE900451D
:102F400002904846FFF704FE00203B464A463146C1
:102F5000CDE9004502904846FFF7FAFD00203346D0
:102F600052463946CDE9004502905046FFF7F0FD44
:102F700000203B464A463946CDE90045029050467E
:102F8000FFF7E6FD00BFBDE73C0000204465627529
:102F9000673A20496E70757420657863656564735F
:102FA00020746865206E6F726D616C206469737047
:102FB0006C61792072616E67650D0A002DE9FF5F13
:102FC0001D46DDF80890DDF80080DDF804A0F7E08C
:102FD00099F800007F2875DC002769E053207843CA
:102FE000296811F8100099F8001088425FD1532029
:102FF0007843296801EB400000F1020B002652E003
:10300000002442E00F98FF2815D1E11704EB51711D
:10301000C910A4EBC102802111419BF8002011408E
:1030200041B30AEB060291B208EB040290B20E9A89
:1030300000F05AF91EE0E11704EB5171C910A4EB3E
:10304000C102802111419BF80020114049B10AEBD7
:10305000060291B208EB040290B20E9A00F044F915
:1030600008E00AEB060291B208EB040290B20F9A54
:1030700000F03AF9E11704EB5171C910A4EBC1015A
:10308000072901D10BF1010B641C2889A042B9DC8E
:103090002889C11700EB5171C910A0EBC10109B11A
:1030A0000BF1010B761C6889B042A9DC03E07F1CA0
:1030B000A888B84292DC00BF09F10109E888804481
:1030C0007EE0FFE7002773E053207843296811F87A
:1030D000100099F80010884269D15320784329687C
:1030E00001EB4000407899F8011088425FD15320ED
:1030F0007843296801EB400000F1020B002652E002
:10310000002442E00F98FF2815D1E11704EB51711C
:10311000C910A4EBC102802111419BF8002011408D
:1031200041B30AEB060291B208EB040290B20E9A88
:1031300000F0DAF81EE0E11704EB5171C910A4EBBE
:10314000C102802111419BF80020114049B10AEBD6
:10315000060291B208EB040290B20E9A00F0C4F895
:1031600008E00AEB060291B208EB040290B20F9A53
:1031700000F0BAF8E11704EB5171C910A4EBC101DA
:10318000072901D10BF1010B641C2889A042B9DC8D
:103190002889C11700EB5171C910A0EBC10109B119
:1031A0000BF1010B761C6889B042A9DC03E07F1C9F
:1031B000A888B84288DC00BF09F102092889804448
:1031C00099F8000000287FF403AFBDE8FF9F0000DE
:1031D0002DE9FC5F04460E4617461D46DDE90CABA3
:1031E000A046B14619488088A04203DB1748C08832
:1031F000B04204DA1648FDF711F9BDE8FC9F1FE064
:10320000A888404411498988884204DDA046E8889E
:1032100048441FFA80F9E88848440C49C988884224
:1032200001DDA046B146CDE900BA3A782B464946C1
:103230004046FFF7E1FA7F1CA88840441FFA80F857
:1032400038780028DCD100BFD7E700003C00002020
:10325000E08107082DE9F0410646069F00201E4C3C
:103260002060204606600181428187810220E08241
:103270000C464FEAE17C01EB5C7C4FEAEC0CA1EBE5
:10328000CC0CBCF1000F07D10D464FEAE57C05EBF5
:103290005C7C4FEAEC0C08E008464FEAE17C01EB6D
:1032A0005C7C4FEAEC0C0CF1010CDFF82C80A8F8E8
:1032B00012C040468282C3810020444620820BB166
:1032C000B42B03D104488180C28002E0024882808E
:1032D000C180BDE8F08100003C0000200149086089
:1032E000704700003C0000202DE9F0410746884669
:1032F000164685488088B84203DB8348C08840452D
:1033000004DA82A0FDF78AF8BDE8F0817E48C08922
:1033100038B15A2808D0B4280ED0B0F5877F1ED116
:1033200016E03C4645461BE077480089A0EB0800C4
:10333000401E84B23D4613E073480089C01B401E06
:1033400084B271484089A0EB0800401E85B207E0B6
:1033500044466D484089C01B401E85B200E0D3E75B
:1033600000BF6948008A30B1012805D0022809D081
:10337000032818D10CE017E063480089001B401EA9
:1033800084B211E060484089401B401E85B20BE0CA
:103390005D480089001B401E84B25B484089401B89
:1033A000401E85B200E0AFE700BF57480089A04249
:1033B00003DB55484089A84203DA54A0FDF72EF8F4
:1033C000A2E75148C08A022833D12146E31704EB13
:1033D0005373DB10DFF830C1BCF812C005FB0C30B2
:1033E000494909680A5C96B92146E31704EB53730F
:1033F000DB10A4EBC30C802343FA0CF322EA030393
:10340000DFF804C1DCF800C00CF8003010E0214601
:10341000E31704EB5373DB10A4EBC30C802343FAD4
:103420000CF31343DFF8E0C0DCF800C00CF8003008
:1034300068E03548C08A042835D12046E31704EBFC
:1034400093739B10DFF8C0C0BCF812C005FB0C31B1
:103450003046F31706EB93739B10A6EB83039EB2E3
:1034600029480068425C2046E31704EB93739B10E5
:10347000A4EB83034FEA430CC02343FA0CF39A43B3
:10348000E31704EB93739B10A4EB83034FEA430C05
:10349000B30143FA0CF31343DFF86CC0DCF800C04F
:1034A0000CF801302EE01848C08A07282AD122469D
:1034B00004EBD2735B10DFF850C0BCF812C005FB00
:1034C0000C30114A1268115C224604EBD2735B1077
:1034D000A4EB43034FEA830CF02343FA0CF3994324
:1034E00004EBD2735B10A4EB43034FEA830C33016C
:1034F00043FA0CF30B43DFF810C0DCF800C00CF803
:10350000003000BF00BFFFE63C000020446562754C
:10351000673A20457863656564696E6720646973FE
:10352000706C617920626F756E6461726965730D8C
:103530000A00000070B50446022C1BD12D48C4823D
:1035400003461A89D31702EB5373DB10A2EBC303B4
:1035500033B903461989CB1701EB5373DB1006E02F
:10356000244B1889C31700EB5373DB105B1C214DF0
:103570006B823EE0042C1BD11E48C48203461A898C
:10358000D31702EB93739B10A2EB830333B903466B
:103590001989CB1701EB93739B1006E0154B188923
:1035A000C31700EB93739B105B1C124D6B8220E0E2
:1035B000072C18D10F48C48203461A8902EBD27334
:1035C0005B10A2EB43032BB90346198901EBD173BE
:1035D0005B1005E0074B188900EBD0735B105B1C98
:1035E000044D6B8205E004A0FCF718FF0DA0FCF76A
:1035F00015FF70BD3C00002044656275673A20539A
:103600006574205363616C6520496E707574207019
:103610006172616D65746572206572726F720D0AF8
:103620000000000044656275673A205363616C6571
:10363000204F6E6C7920737570706F72743A2032FF
:10364000203420370D0A0000704700007CB5044686
:103650000D461646164800681821B0FBF1F01549D2
:10366000B0FBF1F04FF47A71484301906068B0F517
:10367000827F0DD12B46002280212046009600F04B
:103680001BF898B1606D40F02000606503207CBDA0
:1036900000BF019800B908E00198401E0190206821
:1036A0008068C0F3C0100028F3D100BF0020EEE70F
:1036B0002000002040420F002DE9F84F04460D463F
:1036C00090461E46DDF82890FEF76EF9A0EB090043
:1036D000371AFEF769F982462C480068C0F3CB30F0
:1036E0007843009045E0701C002842D0FEF75CF95A
:1036F000A0EB0A00B84200D2A7BB2068406820F0C7
:10370000E000216848606068B0F5827F0DD1A06854
:10371000B0F5004F03D0A068B0F5806F05D12068E8
:10372000006820F0400021680860A06AB0F5005FE2
:103730000DD100BF2068006820F4005021680860A7
:103740002068006840F400502168086000BF012034
:1037500084F8510000BF002084F8500000BF03200F
:10376000BDE8F88FFFE7009800B900270098401ED9
:103770000090206880682840A84201D1012000E024
:1037800000204045AFD10020EAE7000020000020E3
:10379000704710B5FEF70EF910BD000000B593B0EC
:1037A000302107A8FCF7B6FE142102A8FCF7B2FEF0
:1037B00000BF002001902548006840F08050234958
:1037C00008600846006800F08050019000BF00BF0C
:1037D00000BF002001901E48006840F480401C4952
:1037E00008600846006800F48040019000BF00BFF8
:1037F000012007900004089002200D9041050E91D1
:1038000006210F91A82110910221119104211291FA
:1038100007A8FEF7C7FA08B1FDF7A6FF0F20029030
:1038200002200390002004904FF4A05005904FF424
:1038300080500690052102A8FEF784F908B1FDF733
:1038400093FFFEF741FA13B000BD0000403802407C
:10385000007000400348006840F4700001490860AF
:103860007047000088ED00E000BFFEE702480068F6
:10387000C0F30220704700000CED00E010B50028F6
:1038800004DB0A07130E054A135406E00A07140E58
:10389000034A00F00F031B1FD45410BD00E400E0E6
:1038A00018ED00E08A68002A01DCFDF751B8521ECD
:1038B0008A604A68C0B2531C4B6010707047FEF7B4
:1038C00085F8FFF76BFFFEF757FEFEF7EFFEFDF7FB
:1038D00099FD00BFFEE74FF04070E1EE100A70471F
:1038E000FFFFFFFFFFFFFFFFFFFFFFFFFFFFFFFFE8
:1038F000FFFFFFFFFFFFFFFFFFFFFFFFFFFFFFFFD8
:10390000FFFFFFFFFFFFFFFFFFFFFFFFFFFFFFFFC7
:10391000FFFFFFFFFFFFFFFFFFFFFFFFFFFFFFFFB7
:10392000FFFFFFFFFFFFFFFFFFFFFFFFFFFFFFFFA7
:10393000FFFFFFFFFFFFFFFFFFFFFFFFFFFFFFFF97
:10394000FFFFFFFFFFFFFFFFFFFFFFFFFFFFFFFF87
:10395000FFFFFFFFFFFFFFFFFFFFFFFFFF55555575
:103960005555555555555555555555555555555507
:103970005555557FFFFFFFFFFFFFFFFF555555557D
:1039800055555555555555555555555555555555E7
:1039900055557FFFFFFFFFFFFFFFFF55555555555D
:1039A00055555555555555555555555555555555C7
:1039B000557FFFFFFFFFFFFFFFFF5555555555553D
:1039C00055555555555555555555555555555555A7
:1039D0007FFFFFFFFFFFFFFFFF555555555555551D
:1039E0005555555555555555555555555555557F5D
:1039F000FFFFFFFFFFFFFFFF555555555555555527
:103A000055555555555555555555555555557FFF92
:103A1000FFFFFFFFFFFFFF555555555555555555B0
:103A2000555555555555555555555555557FFFFFC8
:103A3000FFFFFFFFFFFF555555555555555555553A
:103A40005555555555555555555555557FFFFFFFFE
:103A5000FFFFFFFFFF5555555555555555555555C4
:103A600055555555555555555555557FFFFFFFFF34
:103A7000FFFFFFFF5555555555555555555555554E
:103A8000555555555555555555557FFFFFFFFFFF6A
:103A9000FFFFFF55555555555555555555555555D8
:103AA0005555555555555555557FFFFFFFFFFFFFA0
:103AB000FFFF555555557D555555555575D7F555F8
:103AC00055555555757555557FFFFFFFFFFFFFFF96
:103AD000FF555555557F555555555575FF7F5555CE
:103AE00055555575F555557FFFFFFFFFFFFFFFFF4C
:103AF000555557FFFF555555555579DFD7D5555570
:103B0000557FF57D55557FFFFFFFFFFFFFFFFF55F9
:103B10005557FFFFD555555555FDD5F555555555B7
:103B20007FFD7F55557FFFFFFFFFFFFFFFFF5555CF
:103B300057557DF5555555557FFFFD555555555DE7
:103B40005DF7D5557FFFFFFFFFFFFFFFFF5555577F
:103B5000557D7D55555555FFFFFD555555555D5FB7
:103B6000D7F5557FFFFFFFFFFFFFFFFF5555575D5F
:103B70007D5F55555555FFFDDD555555555D7F57B5
:103B800075557FFFFFFFFFFFFFFFFF5555575D7D19
:103B90007D555555555B7DDDD55555555D75D755CD
:103BA000557FFFFFFFFFFFFFFFFF5555575D7DF579
:103BB000555555557FFDDFD55555555D7DF7555507
:103BC0007FFFFFFFFFFFFFFFFF5555575FFFD555F5
:103BD0005555555F7DDD555555555D7DF755557FDF
:103BE000FFFFFFFFFFFFFFFF555557555F55555529
:103BF00055557FFDDD555555557FF57F55557FFF53
:103C0000FFFFFFFFFFFFFF555557F55F5555555512
:103C100055FFFDFD555555557FF55F55557FFFFF08
:103C2000FFFFFFFFFFFF555555557D555555555520
:103C30007FFDFD5555555555555555557FFFFFFF92
:103C4000FFFFFFFFFF5555555555555555555555D2
:103C500055555555555555555555557FFFFFFFFF42
:103C6000FFFFFFFF5555555555555555555555555C
:103C7000555555555555555555557FFFFFFFFFFF78
:103C8000FFFFFF55555557FD5555555555557D5514
:103C90005555555555F5F7D5557FFFFFFFFFFFFFEC
:103CA000FFFF555557FFFFD555555555557D555572
:103CB000555555557FF7D5557FFFFFFFFFFFFFFF98
:103CC000FF555557FFFFFF5555555557FDFF5555A6
:103CD00055557FFFFFD5557FFFFFFFFFFFFFFFFF1C
:103CE00055555555557F5555555557FDD75555552E
:103CF00055557DF5D5557FFFFFFFFFFFFFFFFF55B2
:103D00005557D555D555555555577DD755555555B5
:103D1000576DF5D5557FFFFFFFFFFFFFFFFF55559F
:103D200057D5FDD555555555F77DD755555555574B
:103D3000F5FD55557FFFFFFFFFFFFFFFFF5555576F
:103D40005FF5D555555555F77DD7555555557D5D7D
:103D50007FF5557FFFFFFFFFFFFFFFFF5555575DC5
:103D600055DF55555555F77DD7555555557D555FFB
:103D7000D5557FFFFFFFFFFFFFFFFF555557D55577
:103D8000FF55555555F77DD7555555557FFFDF558F
:103D9000557FFFFFFFFFFFFFFFFF555555FF55D52F
:103DA00055555555FF7DD7555555555FFFDF555531
:103DB0007FFFFFFFFFFFFFFFFF555557DFFDD55585
:103DC0005555557F7DFF55555555557DDF55557FCB
:103DD000FFFFFFFFFFFFFFFF555557D57DD5555519
:103DE0005555557D555555555555FDFF55557FFF35
:103DF000FFFFFFFFFFFFFF555557D555D5555555CB
:103E000055557D555555555557D55F55557FFFFF30
:103E1000FFFFFFFFFFFF5555555555555555555556
:103E20005555555555555555555555557FFFFFFF1A
:103E3000FFFFFFFFFF5555555555555555555555E0
:103E400055555555555555555555557FFFFFFFFF50
:103E5000FFFFFFFF5555555555555555555555556A
:103E6000555555555555555555557FFFFFFFFFFF86
:103E7000FFFFFF55555555555555555555555555F4
:103E80005555555555555555557FFFFFFFFFFFFFBC
:103E9000FFFF555557D57D55555555557D5F5555A2
:103EA0005555555F57D555557FFFFFFFFFFFFFFF66
:103EB000FF555557D57D5555555555755F55555534
:103EC00055555F57D555557FFFFFFFFFFFFFFFFF9C
:103ED0005555555555555555555555555555555592
:103EE0005555555555557FFFFFFFFFFFFFFFFF5508
:103EF0005555555555555555555555555555555572
:103F000055555555557FFFFFFFFFFFFFFFFF5555E7
:103F10005555555555555555555555555555555551
:103F2000555555557FFFFFFFFFFFFFFFFF555555C7
:103F30005555555555555555555555555555555531
:103F40005555557FFFFFFFFFFFFFFFFF55555555A7
:103F50005555555555555555555555555555555511
:103F600055557FFFFFFFFFFFFFFFFF555D5555557F
:103F700055555557555555555555557555555555CF
:103F8000557FFFFFFFFFFFFFFFFF555D555555555F
:103F900055555755555555555555755555555555AF
:103FA0007FFFFFFFFFFFFFFFFF555D55555555553F
:103FB0005557555555555555557555555555557F65
:103FC000FFFFFFFFFFFFFFFF555D55555555555549
:103FD00057555555555555557555555555557FFF9B
:103FE000FFFFFFFFFFFFFF555D55555555555557D1
:103FF000555555555555557555555555557FFFFFD3
:10400000FFFFFFFFFFFF555D55555555555557555A
:104010005555555555557555555555557FFFFFFF08
:10402000FFFFFFFFFF555D555555555555575555E4
:1040300055555555557555555555557FFFFFFFFF3E
:10404000FFFFFFFF555D555555555555575555556E
:10405000555555557555555555557FFFFFFFFFFF74
:10406000FFFFFF555D5555555555555755555555F8
:104070005555557555555555557FFFFFFFFFFFFFAA
:10408000FFFF555D55555555555557555555555582
:1040900055557555555555557FFFFFFFFFFFFFFFE0
:1040A000FF555D555555555555575555555555550C
:1040B000557555555555557FFFFFFFFFFFFFFFFF16
:1040C000555D555555555555575555555555555596
:1040D0007555555555557FFFFFFFFFFFFFFFFF55F6
:1040E0005D55555555555557555555555555557556
:1040F00055555555557FFFFFFFFFFFFFFFFF555DEE
:10410000555555555555575555555555555575553D
:10411000555555557FFFFFFFFFFFFFFFFF555D55CD
:10412000555555555557555555555555557555551D
:104130005555557FFFFFFFFFFFFFFFFF555D5555AD
:1041400055555555575555555555555575555555FD
:1041500055557FFFFFFFFFFFFFFFFF555D5555558D
:1041600055555557555555555555557555555555DD
:10417000557FFFFFFFFFFFFFFFFF555D555555556D
:1041800055555755555555555555755555555555BD
:104190007FFFFFFFFFFFFFFFFF555D55555555554D
:1041A0005557555555555555557555555555557F73
:1041B000FFFFFFFFFFFFFFFF555D55555555555557
:1041C00057555555555555557555555555557FFFA9
:1041D000FFFFFFFFFFFFFF555D55555555555557DF
:1041E000555555555555557555555555557FFFFFE1
:1041F000FFFFFFFFFFFF555D555555555555575569
:104200005555555555557555555555557FFFFFFF16
:10421000FFFFFFFFFF555D555555555555575555F2
:1042200055555555557555555555557FFFFFFFFF4C
:10423000FFFFFFFF555D555555555555575555557C
:10424000555555557555555555557FFFFFFFFFFF82
:10425000FFFFFF555D541555415555575555555060
:104260001555557550555415557FFFFFFFFFFFFF3E
:10427000FFFF555D54055540555557555555541537
:1042800055557550155405557FFFFFFFFFFFFFFF84
:10429000FF555D5400555015555755555554055506
:1042A000557550055501557FFFFFFFFFFFFFFFFFCD
:1042B000555D54001554155557554000000555558A
:1042C0007550015541557FFFFFFFEBFFFFFFFF5585
:1042D0005D5410055415555755400000055555754A
:1042E00051405541557FFFFFFFEBFFFFFFFF555D3D
:1042F0005415015415555755555555555555755027
:10430000501541557FFFFFFFEAFFFFFFFF555D544A
:10431000154000155557555555555555557550541B
:104320000001557FFFEAAAAAFFFFFFFF555D541564
:1043300050005555575555555555555575505500BF
:1043400005557FFFAAAAAABFFFFFFF555D5415556B
:10435000055555575550555505555575505550559A
:10436000557FFFAFFFEEAFFFFFFF555D555555552C
:104370005555575550555505555575555555555520
:104380007FFFAFFFEFABFFFFFF555D55555555550F
:104390005557554154150555557555555555557F26
:1043A000FFAFFFEFEAFFFFFF555D555541555555EE
:1043B00057554550050555557550555555557FFF71
:1043C000AFAFEFFABFFFFF555D55554155555557F6
:1043D000554154010555557550155555557FFFAF3D
:1043E000AFEFFABFFFFF555D5550410005555755DA
:1043F0004150400555557550555555557FFFAFAF48
:10440000EFEAFFFFFF555D55500100055557554137
:1044100040500555557555555555557FFFAFABEF78
:10442000ABFFFFFF555D5550010505555755400041
:10443000540555557555555555557FFFAFAAAEAF27
:10444000FFFFFF555D555041050555575550015526
:104450000555557555555405557FFFAFEAAABFFF61
:10446000FFFF555D54504105055557555555555558
:1044700055557555555505557FFFABFFFABFFFFFE5
:10448000FF555D5450410505555755541555555523
:10449000557555555501557FFFAABFEAFFFFFFFF30
:1044A000555D5450410505555755540555555555BD
:1044B0007550000001557FFFEABFEBFFFFFFFF557E
:1044C0005D54504105055557555400555555557582
:1044D00050000001557FFFFFFFEBFFFFFFFF555D21
:1044E00054504105055557555400055555557555BA
:1044F000555555557FFFFFFFFFFFFFFFFF555D54EB
:1045000010410505555755541400555555755555C9
:104510005555557FFFFFFFFFFFFFFFFF555D54001F
:104520004100055557555415400555557555555578
:1045300055557FFFFFFFFFFFFFFFFF555D55004112
:104540000005555755541554055555755415554185
:10455000557FFFFFFFFFFFFFFFFF555D555541559D
:10456000555557554000000555557554055541554D
:104570007FFFFFFFFFFFFFFFFF555D55554155557D
:104580005557554000000555557550150541557F47
:10459000FFFFFFFFFFFFFFFF555D55555555555573
:1045A00057555415555555557550540141557FFF74
:1045B000AFFFFFFFFFFFFF555D555555555555574B
:1045C000555415555555557550550041557FFEAA02
:1045D000BFFFFFFFFFFF555D5555545555555755C6
:1045E0005415555555557550541001557FFFEAAA7D
:1045F000AAABFFFFFF555D555550155555575554FE
:1046000005555555557550101401557FFFFFAAAA41
:10461000ABFFFFFF555D5555540555555755540093
:10462000555555557550001501557FFFFAFFFBEBA9
:10463000FFFFFF555D5400000555555755540005C3
:104640005555557555005541557FFFFAFAFBEBFF5F
:10465000FFFF555D54000041555557555414005502
:1046600055557555555555557FFFFAFABBEBFFFF6C
:10467000FF555D54555040555557555415400555F7
:10468000557555555555557FFFFAFAABEBFFFFFFB2
:10469000555D54555050155557555415540555559D
:1046A0007555555555557FFFFAFBEAEBBFFFFF5592
:1046B0005D545050550555575540000005555575EA
:1046C00055555555557FFFFAFAFAAABFFFFF555DBC
:1046D00054505055055557554000000555557555D2
:1046E000555555557FFFAAAABBAABFFFFF555D547C
:1046F00050505405555755541555555555755555E4
:104700005555557FFFAAAABBEBFFFFFF555D5450DF
:104710005050555557555415555555557555555572
:1047200055557FFFFAFAFBEBFFFFFF555D54500034
:10473000415555575555555555555575555555551B
:10474000557FFFFAFAFBEBFFFFFF555D5455000163
:1047500055555755555555555555755555555555E7
:104760007FFFFAFAFBEBFFFFFF555D54015405553F
:104770005557555005515555557541415541557F32
:10478000FFFAFAFBEBFFFFFF555D54015415555539
:1047900057555001001555557541415541557FFFFD
:1047A000FAFAFBEBFFFFFF555D5555501555555770
:1047B000554140000555557541400141557FFFFA6F
:1047C000FFFFEBFFFFFF555D5555555555555755A7
:1047D0004150150555557540400141557FFFFFFF7C
:1047E000FFFFFFFFFF555D55555555555557554131
:1047F00050550555557550414100557FFFFFFFFF4E
:10480000FFFFFFFF555D55555555555557554150BF
:10481000550555557550414100557FFFFFFFFFFF7E
:10482000FFFFFF555D55555555555557554150148A
:104830000555557554054141557FFFFFFFFFFFFFAB
:10484000FFFF555D555555555555575540000005C9
:1048500055557555000041557FFFFFFFFFFFFFFFD6
:10486000FF555D5555555555555755500100155532
:10487000557555000041557FFFFFFFFFFFFFFFFF0C
:10488000555D555555555555575550155555555513
:104890007554054141557FFFEBFBEAFFFFFFFF55D4
:1048A0005D5555555555555755555555555555758E
:1048B00050414100557FFFEAEAFAAFFFFFFF555D27
:1048C00055400555555557555555555555557550E0
:1048D000414100557FFFFAEAABAAFFFFFF555D5546
:1048E000000055555557555555555555557540402A
:1048F0000141557FFFFAEFABFABFFFFF555D54054D
:104900000005555557555555555555557541400157
:1049100041557FFFEAFAEABFBFFFFF555D541540DE
:1049200000555557555555555555557541415541A6
:10493000557FFFAABFFEBFFFFFFF555D54155040D6
:104940001555575555555555555575414155415571
:104950007FFFFAAAAAABFFFFFF555D54155054150F
:104960005557555555555555557555555555557FAB
:10497000FFFFFAAAABFFFFFF555D541540551555D3
:1049800057555555555555557555555555557FFFE1
:10499000AAAABEEBFFFFFF555D54000155555557C0
:1049A000555555555555557555555415557FFFFF5A
:1049B000AFBEEBFFFFFF555D5500015555555755EF
:1049C0005555555555557555555415557FFFEAAAFA
:1049D000BEEABFFFFF555D55501555555557555506
:1049E00055555555557555551415557FFFEAAABEB1
:1049F000EABFFFFF555D555555555555575555550A
:104A0000555555557555550415557FFFFFAFBEEAF1
:104A1000FFFFFF555D545555015555575555555593
:104A20005555557555540415557FFFEAAABEEBFF41
:104A3000FFFF555D545555415555575555555555DD
:104A400055557555401415557FFFEFAFBEEBFFFF71
:104A5000FF555D54500400555557555555555555FE
:104A6000557541415415557FFFAFAFBEABFFFFFFFA
:104A7000555D5450040015555755555555555555C8
:104A80007541505415557FFFAAAABEABFFFFFF55D5
:104A90005D54154555015557555555555555557541
:104AA00041555415557FFFFFFFFFFFFFFFFF555D89
:104AB000541545414555575555555555555575410D
:104AC000555415557FFFFFFFFFFFFFFFFF555D5456
:104AD0000545415555575555555555555575400042
:104AE0000000557FFFFFFFFFFFFFFFFF555D5500F3
:104AF0004541555557555555555555557540000027
:104B000000557FFFFFFFFFFFFFFFFF555D5500458D
:104B100000055557555555555555557554000000C8
:104B2000557FFFFFFFFFFFFFFFFF555D5505440069
:104B30000555575555555555555575555554155594
:104B40007FFFFFFFFFFFFFFFFF555D551544105529
:104B50005557555555555555557555555415557FFA
:104B6000FFFFFFFFFFFFFFFF555D54154414555530
:104B700057555555555555557555555415557FFF30
:104B8000FFFAFFFAFFFFFF555D5500041415555756
:104B9000555555555555557555555555557FFFFF27
:104BA000FEAFFAFFFFFF555D5450041415555755DD
:104BB0005555555555557555555555557FFFAAAA07
:104BC000AABAFFFFFF555D54555401055557555579
:104BD00055555555557541045555557FFFEBFFEA21
:104BE000AAFFFFFF555D545555015555575555556D
:104BF000555555557541044400557FFFEBFFEFEACD
:104C0000FFFFFF555D55555555555557555555554C
:104C10005555557541104400557FFFEAAAAFFAFF7C
:104C2000FFFF555D555555555555575555555555D6
:104C300055557541144450557FFFEAAAAFFAFFFF5E
:104C4000FF555D5414115415555755555555555527
:104C5000557541144440557FFFFFAFFFFFFFFFFF35
:104C6000555D5414105415555755555555555555B2
:104C70007541044400557FFFFFAFAFFAFFFFFF55BA
:104C80005D541414000555575555555555555575D2
:104C900041044450557FFFFFAFAABAFFFFFF555DA7
:104CA00054041500055557555555555555557540DE
:104CB000040000557FFFFFAFAABAFFFFFF555D5507
:104CC00004105415555755555555555555754004AF
:104CD0000000557FFFAFAFBFFAFFFFFF555D5540A6
:104CE000105415555755555555555555754104444E
:104CF00050557FFFAFAFBFFAFFFFFF555D55401026
:104D00000015555755555555555555754100440095
:104D1000557FFFAFAFAFFAFFFFFF555D54000400B2
:104D200015555755555555555555754114444055CC
:104D30007FFFAFFFAAAAFFFFFF555D540005555541
:104D40005557555555555555557541144450557F32
:104D5000FFAAAAAAAAFFFFFF555D554014001555EA
:104D600057555555555555557541104400557FFFBC
:104D7000EAAABFFFFFFFFF555D55401400155557C8
:104D8000555555555555557541044400557FFFFF00
:104D9000FFFFFFFFFFFF555D5504141415555755D0
:104DA0005555555555557541045555557FFFFFFFD0
:104DB000FFFFFFFFFF555D5404141415555755555B
:104DC00055555555557555555555557FFFFFFFFFA1
:104DD000FFFFFFFF555D54141400155557555555E9
:104DE000555555557555555555557FFFFFFFFFFFD7
:104DF000FFFFFF555D541414001555575555555573
:104E00005555557550155055557FFFFFFFFFFFFF56
:104E1000FFFF555D54141555555557555555555566
:104E200055557554155055557FFFFFFFFFFFFFFF88
:104E3000FF555D555555555555575555555555556E
:104E4000557555055055557FFFFFFFFFFFFFFFFFCD
:104E5000555D5555555555555755555555555555F8
:104E60007555401055557FFFFFFFFFFFFFFFFF55B2
:104E70005D555555555555575555555555555575B8
:104E800041500055557FFFFFFFFFFFFFFFFF555DBE
:104E900055555555555557555555555555557541B4
:104EA000554055557FFFFFFFFFFFFFFFFF555D5545
:104EB0005555555555575555555555555575415594
:104EC0005555557FFFFFFFFFFFFFFFFF555D555510
:104ED000555555555755555555555555754000001F
:104EE00000557FFFFFFFFFFFFFFFFF555D55555545
:104EF0005555555755555555555555754000000054
:104F0000557FFFFFFFFFFFFFFFFF555D55555555CF
:104F10005555575555555555555575555500555574
:104F20007FFFFFFFFFFFFFFFFF555D5551555555B3
:104F30005557555555555555557555500155557F2E
:104F4000FFFFFFFFFFFFFFFF555D555015555555FE
:104F500057555555555555557555404155557FFF34
:104F6000FFFFFFFFFFFFFF555D555001555555579A
:104F7000555555555555557555415055557FFFFF5C
:104F8000FFFFFFFFFFFF555D555000155555575565
:104F90005555555555557555055405557FFFFFFF1A
:104FA000FFFFFFFFFF555D555050015555575555B3
:104FB00055555555557550055415557FFFFFFFFF45
:104FC000FFFFFFFF555D5550550015555755555579
:104FD000555555557554155555557FFFFFFFFFFF26
:104FE000FFFFFF555D5550555015555755555555B3
:104FF0005555557555555555557FFFFFFFFFFFFF1B
:10500000FFFF555D54000000155557555555555532
:1050100055557555555555557FFFFFFFFFFFFFFF50
:10502000FF555D54000000155557555555555555BC
:10503000557541555555557FFFFFFFFFFFFFFFFF9A
:10504000555D55505555555557555555555555550B
:105050007540000000557FFFFFFFFFFFFFFFFF557A
:105060005D555055555555575555555555555575CB
:1050700054000000557FFFFFFFFFFFFFFFFF555D5E
:1050800055555555555557555555555555557555AE
:10509000555410557FFFFFFFFFFFFFFFFF555D5485
:1050A00055555555555755555555555555754504EF
:1050B0001410557FFFFFFFFFFFFFFFFF555D5400FA
:1050C0005555555557555555555555557501041454
:1050D00010557FFFFFFFFFFFFFFFFF555D550000ED
:1050E00000155557555555555555557550000010D7
:1050F000557FFFFFFFFFFFFFFFFF555D55555545EE
:10510000155557555555555555557554000010555D
:105110007FFFFFFFFFFFFFFFFF555D545055451513
:105120005557555555555555557555041410557FBA
:10513000FFFFFFFFFFFFFFFF555D54105145155561
:1051400057555555555555557555041410557FFFF0
:10515000FFFFFFFFFFFFFF555D54005145155557F9
:10516000555555555555557555041410557FFFFF28
:10517000FFFFFFFFFFFF555D545051451555575533
:105180005555555555557540000010557FFFFFFF8B
:10519000FFFFFFFFFF555D545051451555575555BD
:1051A00055555555557540000010557FFFFFFFFFC1
:1051B000FFFFFFFF555D5450514515555755555547
:1051C000555555557555041000557FFFFFFFFFFFDE
:1051D000FFFFFF555D541051451555575555555511
:1051E0005555557555041400557FFFFFFFFFFFFF10
:1051F000FFFF555D5450514515555755555555555B
:1052000055557555055555557FFFFFFFFFFFFFFFAE
:10521000FF555D5400514515555755555555555534
:10522000557555555555557FFFFFFFFFFFFFFFFF94
:10523000555D5410514015555755555555555555B3
:105240007555555555557FFFFFFFFFFFFFFFFF5574
:105250005D50505140155557555555555555557537
:1052600055555555557FFFFFFFFFFFFFFFFF555D6C
:1052700050505555555557555555555555557555C6
:10528000555555557FFFFFFFFFFFFFFFFF555D554C
:10529000555555555557555555555555557555559C
:1052A0005555557FFFFFFFFFFFFFFFFF555D55552C
:1052B000555555555755555555555555755555557C
:1052C00055557FFFFFFFFFFFFFFFFF555D5555550C
:1052D000555555575555555555555575555555555C
:1052E000557FFFFFFFFFFFFFFFFF555D55555555EC
:1052F000555557555555555555557555555555553C
:105300007FFFFFFFFFFFFFFFFF555D5555555555CB
:105310005557555555555555557555555555557FF1
:10532000FFFFFFFFFFFFFFFF555D555555555555D5
:1053300057555555555555557555555555557FFF27
:10534000FFFFFFFFFFFFFF555D555555555555575D
:10535000555555555555557555555555557FFFFF5F
:10536000FFFFFFFFFFFF555D5555555555555755E7
:105370005555555555557555555555557FFFFFFF95
:10538000FFFFFFFFFF555D55555555555557555571
:1053900055555555557555555555557FFFFFFFFFCB
:1053A000FFFFFFFF555D55555555555557555555FB
:1053B000555555557555555555557FFFFFFFFFFF01
:1053C000FFFFFF555D555555555555575555555585
:1053D0005555557555555555557FFFFFFFFFFFFF37
:1053E000FFFF555D5555555555555755555555550F
:1053F00055557555555555557FFFFFFFFFFFFFFF6D
:10540000FF555D5555555555555755555555555598
:10541000557555555555557FFFFFFFFFFFFFFFFFA2
:10542000555D555555555555575555555555555522
:105430007555555555557FFFFFFFFFFFFFFFFF5582
:105440005D555555555555575555555555555575E2
:1054500055555555557FFFFFFFFFFFFFFFFF555D7A
:1054600055555555555557555555555555557555CA
:10547000555555557FFFFFFFFFFFFFFFFF555D555A
:1054800055555555555755555555555555755555AA
:105490005555557FFFFFFFFFFFFFFFFF555D55553A
:1054A000555555555755555555555555755555558A
:1054B00055557FFFFFFFFFFFFFFFFF555D5555551A
:1054C000555555575555555555555575555555556A
:1054D000557FFFFFFFFFFFFFFFFF555D55555555FA
:1054E000555557555555555555557555555555554A
:1054F0007FFFFFFFFFFFFFFFFF555D5555555555DA
:105500005557555555555555557555555555557FFF
:10551000FFFFFFFFFFFFFFFF555D555555555555E3
:1055200057555555555555557555555555557FFF35
:10553000FFFFFFFFFFFFFF55555555555555555575
:10554000555555555555555555555555557FFFFF8D
:10555000FFFFFFFFFFFF55555555555555555555FF
:105560005555555555555555555555557FFFFFFFC3
:10557000FFFFFFFFFF555555555555555555555589
:1055800055555555555555555555557FFFFFFFFFF9
:10559000FFFFFFFF55555555555555555555555513
:1055A000555555555555555555557FFFFFFFFFFF2F
:1055B000FFFFFF555555555555555555555555559D
:1055C0005555555555555555557FFFFFFFFFFFFF65
:1055D000FFFF555555555555555555555555555527
:1055E00055555555555555557FFFFFFFFFFFFFFF9B
:1055F000FF555555555555555555555555555555B1
:10560000555555555555557FFFFFFFFFFFFFFFFFD0
:10561000555555555555555555555555555555553A
:105620005555555555557FFFFFFFFFFFFFFFFF55B0
:10563000555555555555555555555555555555551A
:1056400055555555557FFFFFFFFFFFFFFFFF555590
:1056500055555555555555555555555555555555FA
:10566000555555557FFFFFFFFFFFFFFFFF55555570
:1056700055555555555555555555555555555555DA
:105680005555557FFFFFFFFFFFFFFFFF5555555550
:1056900055555555555555555555555555555555BA
:1056A00055557FFFFFFFFFFFFFFFFFFFFFFFFFFFDE
:1056B000FFFFFFFFFFFFFFFFFFFFFFFFFFFFFFFFFA
:1056C000FFFFFFFFFFFFFFFFFFFFFFFFFFFFFFFFEA
:1056D000FFFFFFFFFFFFFFFFFFFFFFFFFFFFFFFFDA
:1056E000FFFFFFFFFFFFFFFFFFFFFFFFFFFFFFFFCA
:1056F000FFFFFFFFFFFFFFFFFFFFFFFFFFFFFFFFBA
:10570000FFFFFFFFFFFFFFFFFFFFFFFFFFFFFFFFA9
:10571000FFFFFFFFFFFFFFFFFFFFFFFFFFFFFFFF99
:10572000FFFFFFFFFFFFFFFFFFFFFFFFFFFFFFFF89
:10573000FFFFFFFFFFC0FFFFFFFFFFFFFFFFFFFFB8
:10574000FFFFFFFFFFC0FFFFFFFFFFFFFFFFFFFFA8
:10575000FFFFFFFFFFC0FFFFFFFFFFFFFFFFFFFF98
:10576000FFFFFFFFFFC0FFFFFFFFFFFFFFFFFFFF88
:10577000FFFFFFFFFFC0FFFFFFFFFFFFFFFFFFFF78
:10578000FFFFFFFFFFC0FFFFFFFFFFFFFFFFFFFF68
:10579000FC0000FFFFC0FFFFFFFFFFFFFFFFFFFF59
:1057A000E00000FFFFC0FFFFFFFFFFFFFFFFFFFF65
:1057B000C00400FFFFC0FFFFFFFFFFFFFFFFFFFF71
:1057C000003E00FFFFC0FFFFFFFFFFFFFFFFFFFEE8
:1057D00000FE00FFFFC0FFFFFFFFFFFFFFFFFFFC1A
:1057E00007FC00FFFFC0FFFFFFFFFFFFFFFFFFFC05
:1057F0000FF800FFFFC0FFFFFFFFFFFFFFFFFFF8F5
:105800000FE000FFFFC0FFFFFFFFFFFFFFFFFFF8FC
:1058100007F800FFFFC0FFFFFFFFFFFFFFFFFFF0E4
:1058200000FC00FFFFC0FFFFFFFFFFFFFFFFFFF0D7
:1058300000FE00FFFFC0FFFFFFFFFFFFFFFFFFF0C5
:1058400007FC00FFFFC0FFFFFFFFFFFFFFFFFFE0C0
:105850000FE000FFFFC0FFFFFFFFFFFFFFFFFFE0C4
:105860000FC000FFFFC0FFFFFFFFFFFFFFFFFFE0D4
:1058700007F800FFFFC0FFFFFFFFFFFFFFFFFFE094
:1058800001FF00FFFFC0FFFFFFFFFFFFFFFFFFE083
:10589000007FC0FFFFC0FFFFFFFFFFFFFFFFFFE034
:1058A0000F87E0FFFFC0FFFFFFFFFFFFFFFFFFE0ED
:1058B0000F83E1FFFFC0FFFFFFFFFFFFFFFFFFE0E0
:1058C0000FE001FFFFC0FFFFFFFFFFFFFFFFFFE053
:1058D00003F801FFFFC0FFFFFFFFFFFFFFFFFFE136
:1058E000F0FE03FFFFC0FFFFFFFFFFFFFFFFFFE131
:1058F000F07E07FFFFC0FFFFFFFFFFFFFFFFFFE09E
:10590000FFFC07FFFFC0FFFFFFFFFFFFFFFFFFE000
:105910007FF00FFFFFC0FFFFFFFFFFFFFFFFFFE074
:105920000FC01FFFFFC0FFFFFFFFFFFFFFFFFFE0F4
:1059300003007FFFFFC0FFFFFFFFFFFFFFFFFFE050
:105940000000FFFFFFC0FFFFFFFFFFFFFFFFFFE0C3
:105950000007FFFFFFC0FFFFFFFFFFFFFFFFFFFF8D
:10596000FFFFFFFFFFC0FFFFFFFFFFFFFFFFFFFF86
:10597000FFFFFFFFFFC0FFFFFFFFFFFFFFFFFFFF76
:10598000FFFFFFFFFFC0FFFFFFFFFFFFFFFFFFFF66
:10599000FFFFFFFFFFC0FFFFFFFFFFFFFFFFFFFF56
:1059A000FFFFFFFFFFC0FFFFFFFFFFFFFFFFFFFF46
:1059B000FFFFFFFFFFC0FFFFFFFFFFFFFFFFFFFF36
:1059C000FFFFFFFFFFC0FFFFFFFFFFFFFFFFFFFF26
:1059D000FFFFFFFFFFC0FFFFFFFFFFFFFFFFFFFF16
:1059E000FFFFFFFFFFC0FFFFFFFFFFFFFFFFFFFF06
:1059F000E0001FFFFFC0FFFFFFFFFFFFFFFFFFFFF4
:105A000080000FFFFFC0FFFFFFFFFFFFFFFFFFFF53
:105A100000000FFFFFC0FFFFFFFFFFFFFFFFFFFFC3
:105A200007FFDFFFFFC0FFFFFFFFFFFFFFFFFFFEDE
:105A30000FFFFFFFFFC0FFFFFFFFFFFFFFFFFFFEA6
:105A40001FFFFFFFFFC0FFFFFFFFFFFFFFFFFFFE86
:105A50001FFFFFFFFFC0FFFFFFFFFFFFFFFFFFFE76
:105A60001FFFFFFFFFC0FFFFFFFFFFFFFFFFFFFE66
:105A70001FFFFFFFFFC0FFFFFFFFFFFFFFFFFFFE56
:105A80001FFFFFFFFFC0FFFFFFFFFFFFFFFFFFFE46
:105A90001FFFFFFFFFC0FFFFFFFFFFFFFFFFFFFE36
:105AA0001FFFFFFFFFC0FFFFFFFFFFFFFFFFFFFE26
:105AB0001FFFFFFFFFC0FFFFFFFFFFFFFFFFFFFE16
:105AC00000000FFFFFC0FFFFFFFFFFFFFFFFFFFE14
:105AD00000000FFFFFC0FFFFFFFFFFFFFFFFFFFE04
